:020000040800F2
:10000000200D0020A9030008A9380008AB3800081B
:10001000AF380008B3380008B73800080000000007
:10002000000000000000000000000000BB380008D5
:10003000BD38000800000000BF380008C1380008C3
:10004000C3030008C3030008C3030008C303000878
:10005000C3030008C3030008C3030008C303000868
:10006000C3030008C3030008C3030008C303000858
:10007000C3030008C3030008C3030008C303000848
:10008000C3030008C3030008C3030008C303000838
:10009000C3030008C3030008C3030008C303000828
:1000A000C3030008C3030008C3030008C303000818
:1000B000C3030008C3030008C3030008C303000808
:1000C000C3030008C3030008C3030008C3030008F8
:1000D000C3030008772D00080D270008C30300089C
:1000E000C3030008C3030008C303000800F002F8BC
:1000F00000F05AF80AA090E8000C82448344AAF168
:100100000107DA4501D100F04FF8AFF2090EBAE865
:100110000F0013F0010F18BFFB1A43F0010318473B
:10012000807D0000A07D00000A444FF0000C10F814
:10013000013B13F0070408BF10F8014B1D1108BF65
:1001400010F8015B641E05D010F8016B641E01F805
:10015000016BF9D113F0080F1EBF10F8014BAD1C55
:100160000C1B09D16D1E58BF01F801CBFAD505E073
:1001700014F8016B01F8016B6D1EF9D59142D6D3CD
:10018000704700000023002400250026103A28BFF5
:1001900078C1FBD8520728BF30C148BF0B607047F9
:1001A0001FB51FBD10B510BD05F080FB1146FFF750
:1001B000F7FF03F0DFF905F09EFB03B4FFF7F2FF52
:1001C00003BC05F09FFB00000CB5002001900090DF
:1001D0006C48006840F480306A49086000BF694894
:1001E000006800F4003000900198401C01900098D5
:1001F00018B90198B0F5A06FF1D16248006800F419
:10020000003010B10120009001E000200090009823
:10021000012843D15C48006840F010005A4908604A
:100220000846006820F0030008600846006840F0B7
:1002300002000860534840685249486008464068D8
:1002400048600846406840F480604860084640685E
:1002500020F47C1048600846406840F4E81048608C
:100260000846006840F08070086000BF454800689C
:1002700000F000700028F9D04248406820F00300E8
:10028000404948600846406840F00200486000BFAE
:100290003C48406800F00C000828F9D10CBD10B5AE
:1002A000FFF792FF10BD10B53648006840F001001E
:1002B000344908600846406834490840314948607C
:1002C00008460068324908402E4908600846006820
:1002D00020F4802008600846406820F4FE00486052
:1002E0004FF41F008860FFF7DAFF4FF000602949E4
:1002F000086010BD10B5002100200022214B5B6872
:1003000003F00C0121B1042906D0082928D107E007
:10031000214B224C236027E01F4B204C236023E01D
:10032000184B5B6803F47010164B5B6803F4803263
:10033000022303EB904022B9194B4343174C23602F
:100340000DE0104B5B6803F4003323B1144B4343BF
:10035000124C236003E0104B4343104C236003E036
:100360000D4B0E4C236000BF00BF064B5B68C3F310
:1003700003130C4CE15C094B1B68CB40074C23601A
:1003800010BD000000100240002002400000FFF8F5
:10039000FFFFF6FE08ED00E000127A0000000020EA
:1003A00000093D0004000020094880470948004733
:1003B000FEE7FEE7FEE7FEE7FEE7FEE7FEE7FEE715
:1003C000FEE7FEE704480549054A064B7047000072
:1003D000A7020008ED00000820070020200D0020E3
:1003E00020090020200900204FF0E021096921F0B8
:1003F00004014FF0E0221161C21700EB5272C2F308
:10040000C702234B1A701946097801EB4102C2EB6F
:10041000C1114FF6FF7202EAC1011E4A11807047F6
:1004200001461C4A12884A434FF0E0235A610022D9
:100430009A6101221A6100BF4FF0E022106900F0BA
:1004400001021AB100F48032002AF5D000224FF0E8
:10045000E0231A619A61704701460D4A12784A43B7
:100460004FF0E0235A6100229A6101221A6100BF15
:100470004FF0E022106900F001021AB100F480325E
:10048000002AF5D000224FF0E0231A619A617047EC
:10049000140000201600002008B50121082003F0F8
:1004A0009BFDC020ADF8000010208DF80300032054
:1004B0008DF802006946FD4803F0D2FA08BD10B578
:1004C000FA48006820F07040F84908600846006863
:1004D00040F0405008600120F5490860F549C1F836
:1004E00098010420FFF7B8FF0020F14908600420BC
:1004F000FFF7B2FF0020EF49C1F8980110BD10B519
:10050000EA48006820F07040E84908600846006842
:1005100040F0405008600020E549091F0860E549A7
:10052000C1F89C010420FFF797FF0120E049091F53
:100530000860E049C1F89C010420FFF78DFF10BD61
:1005400010B50024D948006820F07040D7490860F1
:100550000846006840F0004008600120D449086067
:10056000FFF77AFF0120D349C1F89801FFF774FF24
:100570000AE0601CC4B2322C03DDFFF7C0FF01208B
:1005800010BD0120FFF768FFC948803800680028C7
:10059000EFD1C749091F086000BFF1E710B500207F
:1005A000C349091F0860C148006820F07040BF4976
:1005B00008600846006840F0405008600020BD49CF
:1005C000C1F89C010220FFF747FF0120B849091F2D
:1005D00008600220FFF740FF0020B649C1F89801EB
:1005E00010BD10B50020B249091F0860AF4800686F
:1005F00020F07040AD4908600846006840F0405067
:1006000008600120AB49C1F89C010220FFF724FFDC
:100610000120A749091F08600220FFF71DFF0020E5
:10062000A449C1F8980110BD70B504469F48006800
:1006300020F070409D4908600846006840F0405036
:10064000086000209A49091F0860002517E0E009AA
:10065000974908606006040E0220FFF7FDFE0120A6
:100660009449C1F898010220FFF7F6FE0020904956
:10067000091F08600220FFF7EFFE681CC5B2082DB5
:10068000E5DB70BD70B5054600248848006820F0A1
:100690007040864908600846006840F000400860E5
:1006A000002617E000208249091F08600220FFF79A
:1006B000D3FE01207F49C1F898016006040E7C48F2
:1006C0008038006808B1601CC4B20220FFF7C4FE85
:1006D000701CC6B2082EE5DB15B1FFF75FFF01E025
:1006E000FFF77FFF204670BD70B505460E4600241B
:1006F000FFF7E5FE2846FFF797FF641CFFF720FF92
:100700003046FFF791FF641CFFF71AFFFFF7D7FE93
:10071000691CC8B2FFF788FF641CFFF711FF0020B7
:10072000FFF7B0FF0446FFF7EAFE204670BD2DE953
:10073000F0410746884615461E460024FFF7BFFED7
:100740003846FFF771FFFFF7FBFE4046FFF76CFFEF
:10075000FFF7F6FEFFF7B3FE791CC8B2FFF764FFA0
:10076000FFF7EEFE00BF0DE0681EA04204D001209E
:10077000FFF788FF305503E00020FFF783FF305577
:10078000601CC4B2AC42EFDBFFF7B9FE2046BDE807
:10079000F0812DE9F04180460D4616461F460024A3
:1007A000FFF78DFE4046FFF73FFFFFF7C9FE2846E3
:1007B000FFF73AFFFFF7C4FE00BF06E0385DFFF722
:1007C00033FFFFF7BDFE601CC4B2B442F6DBFFF797
:1007D00096FE0120BDE8F08170B505460E46144630
:1007E00031462846FFF780FF2070012070BD37B5E5
:1007F00004460D4602AB012229462046FFF7C9FFF9
:100800003EBD2DE9F8430746884614461D46089E1E
:100810006A4641463846FFF7DFFF28B3601CFF21D8
:1008200001FA00F0C4F108012944491EFF220A41DF
:10083000104300F0FF09C5F1080006FA00F0C6B247
:10084000C4F1070006419DF8000000EA090000908D
:100850009DF80000304300909DF800204146384646
:10086000FFF7C5FFBDE8F8830020FBE7F8B50646B3
:100870000F4614461D466A4639463046FFF7ACFF20
:100880002DB10120A0409DF80010084305E0012093
:10089000A0409DF8001021EA0000C0B200909DF831
:1008A000002039463046FFF7A2FFF8BD000C01409A
:1008B0009C8121420080214210B52021FE4803F096
:1008C00062F9012800D110BD0020FCE72DE9F041BC
:1008D00006460F4690460025012419E0F74830F8F7
:1008E0001410601EF54A22F8101002F1160030F8BC
:1008F0001420601EF149163121F8102001F1160074
:1009000030F81420601E163121F81020601CC4B28B
:100910000A2CE3DBE94846820785A0F83E800025E3
:10092000002405E0E54830F914000544601CC4B219
:100930000A2CF7DB0A2095FBF0F000B2DF49888231
:100940000025002406E0DD48163030F91400054487
:10095000601CC4B20A2CF6DB0A2095FBF0F001B251
:10096000D64841850025002406E0D4482C3030F9D3
:1009700014000544601CC4B20A2CF6DB0A2095FB67
:10098000F0F001B2CD48A0F84010CD480078002822
:100990004BD0CA48B0F91400CA49B1F900108842D6
:1009A00003DAC648808AC7490880C448B0F92A00DB
:1009B000C549B1F90010884203DAC048408DC249E8
:1009C0000880BE48B0F94000C049B1F90010884223
:1009D00004DABA48B0F84000BC490880B748B0F91A
:1009E0001400BB49B1F90010884203DDB348808A86
:1009F000B7490880B148B0F92A00B649B1F90010EA
:100A0000884203DDAD48408DB2490880AB48B0F95B
:100A10004000B149B1F90010884204DDA748B0F8A0
:100A20004000AD49088001F039F8BDE8F0812DE9BA
:100A3000FC4104460D46164600208DF805008DF851
:100A400004008DF803008DF802008DF801008DF888
:100A500000006B46062203213C20FFF768FE9DF84C
:100A600003309DF8027043EA07231AB29DF805305F
:100A70009DF8047043EA072319B29DF801309DF8F0
:100A8000007043EA072318B2FFF720FF8B48808AE3
:100A900020808A48408D28808848B0F84000308007
:100AA000BDE8FC811CB500240BE001AA911E68463C
:100AB000FFF7BDFFC820FFF7CFFC00F0EFFF601C81
:100AC000C4B2322CF1DB1CBD70B504460D462A467B
:100AD00021463C20FFF78BFE70BD784B9B8A03803C
:100AE000764B5B8D0B80754BB3F8403013807047AD
:100AF0003EB504466A4601A902A8FFF798FFBDF972
:100B00000810764AB2F90020881A06F01DFF054643
:100B100073480168284606F043FF72490860206068
:100B2000BDF90410704AB2F90020881A06F00CFFD3
:100B300005466E480168284606F032FF6C49086099
:100B40006060BDF900106B4AB2F90020881A06F007
:100B5000FBFE054668480168284606F021FF674904
:100B60000860A0603EBD10B50446072C00DD10BD36
:100B70006007010E0120FFF7A7FF00BFF7E710B5E0
:100B80000446022C00DD10BD21460220FFF79CFF29
:100B90006420FFF761FC00BFF5E710B5044614B10F
:100BA0000020FFF7ECFF70210020FFF78DFFA02150
:100BB0000120FFF789FF00210220FFF785FF10BD0C
:100BC00010B50446062C00DD10BDA006010E002065
:100BD000FFF77AFF00BFF7E710B504460A213C2073
:100BE000FFF782FD20700B213C20FFF77DFD607038
:100BF0000C213C20FFF778FDA07010BD10B500203F
:100C0000FFF7CBFF0020FFF7BAFF0620FFF7D8FF62
:100C1000FFF748FF3A480089304908803848408942
:100C20003149088036488089324908803448006953
:100C30002B490860324840692C4908603048806977
:100C40002D49086010BD01201D4908704FF4704007
:100C50001F4908801F4908801F4908804FF48050B1
:100C600018490880184908801849088000201B4945
:100C700008801D4908801F4908804FF07E501849A0
:100C800008601A4908601C490860704710B510498F
:100C9000B1F900100B4AB2F90020881800EBD071AE
:100CA000491009B2164A11810C4A11800949B1F95B
:100CB0000010054A26E0000000080140BC010020A9
:100CC000440000202A0000202C0000202E000020DC
:100CD00024000020260000202800002030000020F2
:100CE0003800002018000020320000203C000020C6
:100CF0001C000020340000204000002020000020C4
:100D0000A0060020B2F90020881800EBD07149102D
:100D100009B2114A5181114A11801149B1F90010EB
:100D2000104AB2F90020881800EBD071491009B2BE
:100D3000094A91810C4A11800C48006806490861F3
:100D40000B48006848610B480068886102F0CAFBE4
:100D500000200949087010BDA006002032000020C4
:100D6000280000202E000020340000203800002041
:100D70003C00002040000020440000200EB501216E
:100D8000032003F036F9684603F08AFD4FF6FF7042
:100D9000ADF804000020ADF80000ADF80600ADF895
:100DA000020069464FF0804003F04EFA00221146DF
:100DB0004FF0804003F04BFE0121880703F0ECFF69
:100DC0002021480603F0D6FD07214FF0804004F0B3
:100DD00019F88021C80504F01EF80121880703F0E6
:100DE0008FFE4FF6FF70ADF804004820ADF800000C
:100DF0000020ADF80600ADF802006946FE4803F099
:100E000023FA0121FC4803F07BFE0421FA4803F099
:100E1000F9FF0121F84803F0CBFF2021F64803F049
:100E2000E8FF8021F44803F0F6FF0121F24803F0C7
:100E300067FD0121880703F063FD0EBD2DE9F04732
:100E400004464FF07C51204606F0AAFD8146254617
:100E50002E46EA48A0EB660635462946484606F087
:100E60009FFD8246294606F09BFD80464FF07F514C
:100E700006F062FE0746294606F092FD0546284622
:100E8000BDE8F08700204FF08041888C0004DA49EB
:100E9000243109880844704710B501F024F8FFF7A1
:100EA000ADFE02F0ECFA3220FFF7BAFA01F01BF8BF
:100EB000FFF7A4FE02F0E3FAFFF760FF4FF07E5069
:100EC000CF4908600020CF490860CF490860CF496A
:100ED0000860CF490860CF490860CF490860FFF734
:100EE000D1FFCE490860FFF7CDFFCD49086010BDA6
:100EF00070B586B005460DF1160005A9031F04AABA
:100F0000CDE90010891F03A800F043FF002415E07D
:100F1000032C07DA03A931F9140006F015FD45F892
:100F200024000AE003A931F9140006F00DFD06467D
:100F3000BC4906F0F7FB45F82400641C062CE7DBEF
:100F400005F11800FFF7D4FD06B070BD0FB5AFB0C6
:100F5000AB480168006806F023FD1990A9480168B4
:100F6000A748006806F01CFD1890A7480168A4482F
:100F7000006806F015FD1790A4480168A0480068B5
:100F800006F00EFD16909F480168006806F008FD07
:100F900015909D4801689B48006806F001FD14907B
:100FA0009A4801689748006806F0FAFC1390964842
:100FB0000168006806F0F4FC1290944801689248B9
:100FC000006806F0EDFC119090480168006806F09A
:100FD000E7FC1090FFF756FF91490860084600684B
:100FE0008E490968884210D28C4800684FF6FF711C
:100FF000081A8B49096808440E9006F0BDFC8A491E
:101000000F9006F08FFB1E900CE085480068834926
:101010000968401A0E9006F0AFFC83490F9006F065
:1010200081FB1E907E4800687C490860359908461F
:1010300006F0B6FC0E903499084606F0B1FC0C9010
:101040003299084606F0ACFC0B900C9906F0FCFABD
:101050000D900E9906F0F8FA0F90FFF7EFFE2D9025
:101060002D99329806F09CFC32902D99349806F018
:1010700097FC34902D99359806F092FC359038996C
:10108000084606F08DFC0E903799084606F088FC5D
:101090000C903699084606F083FC0B900C9906F0EC
:1010A000D3FA0D900E9906F0CFFA0F90FFF7C6FE17
:1010B0002D902D99369806F073FC36902D9937981F
:1010C00006F06EFC37902D99389806F069FC389040
:1010D0001799139806F0B8FA0D904FF080403899A0
:1010E00006F05EFC0C900D9906F05AFC0F901699D4
:1010F000149806F02BFD0B904FF08040379906F0C6
:101100004FFC0A900B9906F04BFC0D904FF07C5071
:10111000129906F01BFD0990109906F017FD0B902F
:101120004FF08040369906F03BFC0A900B9906F090
:1011300037FC0C900D9906F087FA0E900F9906F087
:1011400083FA2C901899119806F000FD0D904FF03D
:101150008040389906F024FC0C900D9906F020FC94
:101160000F904FF07C50159906F0F0FC0990109903
:1011700006F0ECFC0B904FF08040379906F010FC25
:101180000A900B9906F00CFC0D901699149806F035
:101190005BFA0B904FF08040369906F001FC0A9004
:1011A0000B9906F0FDFB0C900D9906F04DFA0E9090
:1011B0000F9906F049FA2B904FF07C50159906F0E4
:1011C000C5FC0B90129906F0C1FC0D904FF08040C9
:1011D000389906F0E5FB0C900D9906F0E1FB0F90B5
:1011E0001899119806F030FA0B904FF0804037991B
:1011F00006F0D6FB0A9019E000040040DF59375F83
:1012000054000020580000205C00002060000020F6
:10121000480000204C000020500000206C000020FE
:1012200070000020333303420024F4490B9906F088
:10123000B7FB0D901799139806F088FC0B904FF0B0
:101240008040369906F0ACFB0A900B9906F0A8FB9B
:101250000C900D9906F0F8F90E900F9906F0F4F93C
:101260002A902B99084606F09BFB0A902C99084679
:1012700006F096FB09900A9906F0E6F90B9006F045
:10128000B7F9CDE90C0105F0B5FBCDE90E0105F08C
:10129000D7FB29902A9828901799139806F056FCA6
:1012A0004FF080410F9006F07BFB27901199189822
:1012B00006F0CAF94FF080410F9006F071FB2690BE
:1012C0001599199806F042FC0E90129906F03EFC12
:1012D0000F90109906F0B8F925901799139806F019
:1012E00035FC08904FF08040289906F059FB079094
:1012F000089906F055FB099006F07AF9CDE90C0142
:10130000109806F075F9CDE90401129806F070F90D
:101310000022F94BCDE9000105F08EFFCDE9020175
:10132000DDE9042306F07AF8CDE908014FF08040AA
:10133000299906F035FB059006F05AF9CDE906012A
:10134000DDE9082305F044FECDE90A01DDE90C23BF
:1013500005F0A8FBCDE90E0105F072FB2490119970
:10136000189806F071F90D904FF08040289906F01A
:1013700017FB0C900D9906F013FB0F90169914981B
:1013800006F0E4FB0D904FF08040299906F008FB31
:101390000C900D9906F004FB0E900F9906F054F98D
:1013A0002390129806F024F9CDE90401159806F06F
:1013B0001FF90022D04BCDE9000105F03DFFCDE93A
:1013C0000201DDE9042306F029F8CDE908014FF018
:1013D0008040289906F0E4FA059006F009F9CDE975
:1013E0000601DDE9082305F0F3FDCDE90C011399B1
:1013F000179806F029F908904FF08040299906F0D7
:10140000CFFA0790089906F0CBFA099006F0F0F8A9
:10141000CDE90A01DDE90C2305F044FBCDE90E011D
:1014200005F00EFB22902699359806F0B9FA0F9038
:101430002599349806F0B4FA0E900F9906F086FBC1
:1014400021902599329806F0ABFA0F90279935989C
:1014500006F0A6FA0E900F9906F078FB20902799D7
:10146000349806F09DFA0F902699329806F098FA73
:101470000E900F9906F06AFB1F900021219806F04C
:1014800013FA69D00021209806F00EFA64D00021EA
:101490001F9806F009FA5FD09849219806F080FA63
:1014A0000E901E9906F07CFA0F90954801680F98EF
:1014B00006F0CAF8924908609049209806F070FA40
:1014C0000E901E9906F06CFA0F908E4801680F98E6
:1014D00006F0BAF88B49086088491F9806F060FA50
:1014E0000E901E9906F05CFA0F90874801680F98DD
:1014F00006F0AAF8844908604FF08040219906F070
:101500004FFA0E902F9906F09FF80F907C480168D3
:101510000F9806F099F82F904FF08040209906F030
:101520003FFA0E90309906F08FF80F9075480168D9
:101530000F9806F089F830904FF080401F9906F020
:101540002FFA0E90319906F07FF80F906E480168DF
:101550000F9806F079F831906C483199006806F0E0
:101560001FFA0D906A483099006806F019FA0B903E
:101570006848006880F0004009902F9906F010FA42
:101580000A900B9906F0E2FA0C900D9906F0DEFA3B
:101590000E901E9906F004FA0F905F4801680F98AC
:1015A00006F052F81D9059483099006806F0F8F995
:1015B0000D9057483199006806F0F2F90B905648A3
:1015C00001682F9806F0ECF90A900B9906F03CF8A8
:1015D0000C900D9906F0BAFA0E901E9906F0E0F9FB
:1015E0000F904C4801680F9806F02EF81C90474861
:1015F00001682F9806F0D4F90D904648319900689B
:1016000006F0CEF90B9044483099006806F0C8F90E
:101610000A900B9906F09AFA0C900D9906F014F8BE
:101620000E901E9906F0BCF90F90394801680F988A
:1016300006F00AF81B90364801682F9806F0B0F9BA
:101640000D9034483099006806F0AAF90B903248A2
:101650003199006806F0A4F90A900B9905F0F4FF9F
:101660000C900D9906F072FA0E901E9906F098F9FA
:101670000F90264801680F9805F0E6FF1A901A9916
:10168000084606F08DF90E901B99084606F088F979
:101690000C901C99084606F083F90A901D9908469B
:1016A00006F07EF909900A9905F0CEFF0B900C998F
:1016B00005F0CAFF0D900E9905F0C6FF0F90FFF7D9
:1016C000BDFB2D902D991D9806F06AF9124908600E
:1016D0002D991C9806F064F90E4908602D991B9805
:1016E00006F05EF90A4908602D991A9806F058F933
:1016F0000649086033B000BD0000E03F0AD7233C34
:10170000480000204C000020500000206000002015
:101710005C00002058000020540000202DE9F0411A
:1017200086B004469448FFF7E3FB93494869934920
:1017300006F036F98046924905F0F4FF05468E49D9
:1017400008698E4906F02CF980468D4905F0EAFFBC
:1017500006468949C868894906F022F980468849C1
:1017600005F0E0FF07468448006A8349C969824A58
:101770009269814B9B68CDE90132CDE903107E4827
:10178000406800907C482A46314603683846FFF797
:10179000DDFB7C48006820607B48006860607B4817
:1017A0000068A0607A480068E06006B0BDE8F0819B
:1017B0002DE9F04F8FB0044600200A900990089060
:1017C0000BA8FFF7ABFF4FF080400E9906F0E8F84A
:1017D00000900E9906F0E4F883464FF040400D99D2
:1017E00006F0DEF800900D9906F0DAF859460190FF
:1017F00006F0ACF982464FF07E5105F025FF814698
:1018000005F0F6FE074688464FF080400B9906F03B
:10181000C7F801900E9906F0C3F882464FF0804059
:101820000C9906F0BDF801900D9906F0B9F88346C1
:10183000514605F009FF814605F0DAFE3A46434677
:10184000CDE9020104F026FB81F0004105460022AB
:10185000504B05F0BDFB4FF0C0424F4BCDE90401AA
:1018600005F0DCF9CDE9060105F0EAF820604FF05B
:1018700080400B9906F094F803900D9906F090F8CB
:1018800082464FF040400C9906F08AF803900E997A
:1018900006F086F88346514605F0D6FE814605F0EF
:1018A000A7FECDE9040104F0A5F881F00041074648
:1018B0000022384B05F08CFB05464FF0C042364BFA
:1018C00005F0ACF9CDE9060105F0BAF860604FF01B
:1018D00080400D9906F064F883460D9906F060F893
:1018E00081464FF040400C9906F05AF883460C9917
:1018F00006F056F88246494606F028F906464FF0AB
:101900007E5105F0A1FE054605F072FECDE902010B
:101910004FF080400B9906F043F882460C9906F090
:101920003FF806464FF080400D9906F039F88246A0
:101930000E9906F035F88146314605F085FE0546DC
:1019400005F056FECDE90001DDE9022304F0A2FA1C
:10195000074600220F4B05F03BFB4FF0C0420E4BF9
:10196000CDE9040105F05AF9CDE9060105F068F862
:10197000A0600FB0BDE8F08F00020020DB0F4940EF
:101980000000344354000020580000205C00002078
:101990006000002000806640FB21094008B501215D
:1019A0000D2002F019FB4FF48170ADF800001020FB
:1019B0008DF8030002208DF8020069464A4802F0C3
:1019C0004FF87020ADF8000003208DF80200482089
:1019D0008DF803006946444802F042F84FF48071E4
:1019E000414802F0EAF802213F4802F0E6F808BD5B
:1019F00000B589B00121C80202F0EEFA01210420ED
:101A000002F0EAFA4FF48070ADF8040018208DF867
:101A1000070003208DF8060001A9334802F020F8E2
:101A2000C820ADF81C001420ADF818000020ADF857
:101A30001E00ADF81A008DF8200006A92B4802F010
:101A400003FC6020ADF808000120ADF80A00022078
:101A5000ADF810001420ADF80E0002A9234802F0E2
:101A600030FC0020ADF80A0002A9204802F06BFC0F
:101A700002A91E4802F0B4FC08211C4803F070F8CB
:101A800001211A4803F03CF80121184802F038FF00
:101A90000121164802F040FF09B000BD1448154965
:101AA000097830F821001149343108801148007854
:101AB000401CC0B20F490870282801D100200870CE
:101AC000704710B54FF48071074802F069F828B1EB
:101AD0004FF48071044802F072F804E04FF4807112
:101AE000014802F06AF810BD00080140002C0140D6
:101AF00074000020140100202DE9F04304460D4637
:101B0000DDE907670021012041E0DFF8B4C53CF8BA
:101B10001080A0F1010CDFF8A89529F81C8009F1CC
:101B2000160C3CF81090A0F1010CDFF8948508F138
:101B3000160828F81C9008F1160C3CF81090A0F13B
:101B4000010C08F1160828F81C9008F1160C3CF856
:101B50001090A0F1010C08F1160828F81C9008F16B
:101B6000160C3CF81090A0F1010C08F1160828F8AA
:101B70001C9008F1160C3CF81090A0F1010C08F133
:101B8000160828F81C9000F1010C0CF0FF000A2840
:101B9000BBDBDFF82CC5ACF81240ACF82850ACF831
:101BA0003E20ACF85430ACF86A60ACF8807000218C
:101BB000002008E0DFF808C53CF910C0614400F1DE
:101BC000010C0CF0FF000A28F4DB4FF00A0C91FB2B
:101BD000FCFC0FFA8CFCDFF8E884A8F814C00021A4
:101BE00000200AE0DFF8D8C40CF1160C3CF910C054
:101BF000614400F1010C0CF0FF000A28F2DB4FF009
:101C00000A0C91FBFCFC0FFA8CF8DFF8B4C4ACF8BA
:101C10002A80002100200AE0DFF8A4C40CF12C0C7B
:101C20003CF910C0614400F1010C0CF0FF000A28DF
:101C3000F2DB4FF00A0C91FBFCFC0FFA8CF8DFF89A
:101C400080C4ACF84080002100200AE0DFF870C4B6
:101C50000CF1420C3CF910C0614400F1010C0CF095
:101C6000FF000A28F2DB4FF00A0C91FBFCFC0FFA94
:101C70008CF8DFF84CC4ACF85680002100200AE054
:101C8000DFF83CC40CF1580C3CF910C0614400F181
:101C9000010C0CF0FF000A28F2DB4FF00A0C91FB5C
:101CA000FCFC0FFA8CF8DFF818C4ACF86C8000214B
:101CB00000200AE0DFF808C40CF16E0C3CF910C0FB
:101CC000614400F1010C0CF0FF000A28F2DB4FF038
:101CD0000A0C91FBFCFC0FFA8CF8DFF8E4C3ACF8BB
:101CE0008280BDE8F08338B50446032302226B21CD
:101CF000D0200094FEF785FD38BD38B50446022398
:101D000004221B21D0200094FEF77BFD38BD38B59E
:101D10000446022304221C21D0200094FEF771FD0A
:101D200038BD10B50446234606226B21D020FEF7AD
:101D30009DFD10BD10B5E34B01227521D020FEF7AB
:101D4000F6FCE048007810BD10B5FFF7F3FF6828F7
:101D500001D1012010BD0020FCE710B50446234648
:101D600005226A21D020FEF781FD10BD10B5044682
:101D7000234601223721D020FEF778FD10BD10B593
:101D80004021D14801F0FFFE012800D110BD002004
:101D9000FCE72DE9FC4704460D4616461F46DDE9E3
:101DA0000A89FFF7ECFF002877D0C64B0E223B21B3
:101DB000D020FEF7BCFCC3484078C249097840EA0D
:101DC000012000B2C1490880BE48C078BD49897869
:101DD00040EA012000B2BE490880BA484079B949BA
:101DE000097940EA012000B2BA490880B548407A32
:101DF000B449097A40EA012000B2B7490880B148E5
:101E0000C07AB049897A40EA012000B2B34908801B
:101E1000AC48407BAB49097B40EA012000B2B049A5
:101E200008800846B0F90000AC49B1F90010CDE9CE
:101E30000010A948B0F90030A648B0F90020A44825
:101E4000B0F90010A148B0F90000FFF755FE9C481A
:101E5000808A20809A48408D28809948B0F84000B8
:101E600030809748B0F856009E490988401A00B261
:101E700038809348B0F86C009B490988401A00B23A
:101E8000A8F800008E48B0F8820098490988401AE6
:101E900000B2A9F8000024E0FFE78948808A20808A
:101EA0008748408D28808648B0F8400030808448BC
:101EB000B0F856008B490988401A00B23880804833
:101EC000B0F86C0088490988401A00B2A8F80000F0
:101ED0007B48B0F8820085490988401A00B2A9F809
:101EE0000000BDE8FC8710B586B00120FFF7FBFEBF
:101EF0000220FFF702FF0020FFF709FF0020FFF795
:101F000010FF0020FFF729FF0120FFF72FFF00231C
:101F100007223721D020FEF7A9FC00230622372113
:101F2000D020FEF7A3FC012305223721D020FEF7A5
:101F30009DFC012304223721D020FEF797FC0123CA
:101F400000223821D020FEF791FC00240FE032203F
:101F5000FEF782FA0DF1160005A9031F04AACDE9C8
:101F60000010891F03A8FFF714FF601CC4B20A2CDD
:101F7000EDDB5F4840885B4908805D4880885A49AE
:101F800008805B48C0885949088006B010BDF0B58C
:101F9000DDE905454A4EB68A0680494E768D0E80AB
:101FA000474EB6F840601680454EB6F856604D4F25
:101FB0003F88F61B36B21E80414EB6F86C604A4F21
:101FC0003F88F61B36B226803D4EB6F88260474FFA
:101FD0003F88F61B36B22E80F0BD2DE9F04786B063
:101FE000002500260027A846A946AA4600203D490C
:101FF00008803D4908803D490880002411E06420A4
:10200000FEF72AFA0DF1160005A9031F04AACDE96F
:102010000010891F03A8FFF7BCFEFFF73FFD601CFF
:10202000C4B2322CEBDB002423E0C820FEF714FA04
:102030000DF1160005A9031F04AACDE90010891FA0
:1020400003A8FFF7A6FEBDF90C008044BDF90E0001
:102050008144BDF910008244BDF912000544BDF968
:1020600014000644BDF916000744FFF717FD601C75
:10207000C4B2642CD9DB642095FBF0F000B219499E
:1020800008801B494880642096FBF0F000B2164996
:10209000088017498880642097FBF0F000B213494C
:1020A00008801349C88001F01DFA642098FBF0F8FD
:1020B00099FBF0F99AFBF0FA06B0BDE8F087000052
:1020C0003202002024020020000801401C010020F0
:1020D0001E010020200100202201002024010020F8
:1020E0002601002016010020180100201A010020FE
:1020F000A006002008B526208DF8000001208DF8EC
:10210000010008208DF8020001208DF803006846C8
:1021100001F0DDFB08BD10B586B004460121FE4884
:1021200001F067FF0420ADF8140018208DF81700A7
:1021300003208DF8160005A9F84801F091FC08204D
:10214000ADF8140004208DF8170005A9F34801F03C
:1021500087FC01940020ADF80800ADF80A00ADF846
:102160000C00ADF810000C20ADF80E0001A9EC48F1
:1021700002F0E7FE002240F22771E94802F079FF01
:102180004021E74803F051F8012240F22551E4488C
:1021900002F06FFF0121E24802F05FFFFFF7AAFFA4
:1021A00006B010BD10B50446DE4801780078401C2A
:1021B000DC4A1070DC484454012240F22771D848B0
:1021C00002F057FF10BD10B500BFD548008800F0E1
:1021D00020000028F9D0D24802F0B0FFC0B210BDF4
:1021E00010B504460FE020780D2802D1FFF7DAFF82
:1021F00008E020780A2802D1FFF7D4FF02E0207817
:10220000FFF7D0FF641C20780028ECD110BD10B57A
:1022100004460A20B0EB241F05DD302101EB241019
:10222000FFF7C0FF06E00A21C1EB24114131C8B21B
:10223000FFF7B8FF04F00F000A2806DA04F00F01D8
:1022400001F13000FFF7AEFF05E004F00F01373178
:10225000C8B2FFF7A7FF2020FFF7A4FF10BD10B5FD
:1022600004462012FFF7D3FFE0B2FFF7D0FF10BD06
:1022700010B50446200CFFF7F2FFA0B2FFF7EFFF06
:1022800010BD2DE9F0410546A84C002713E0B5FB31
:10229000F4F0C6B2002E02DC0FB9012C05D106F114
:1022A0003001C8B2FFF77EFF012706FB14550A2054
:1022B000B4FBF0F400BF002CE9D1BDE8F08110B50B
:1022C0000446002C04DA604204B22D20FFF76AFFB6
:1022D0002046FFF7D6FF10BD70B50446002C04DA87
:1022E000604204B22D20FFF75DFF0A2094FBF0F559
:1022F0002846FFF7C6FF2E20FFF754FF0A2094FB65
:10230000F0F100FB11452846FFF7BBFF70BD2DE93A
:10231000F05F06460F4690469946DDE90AABB324C6
:10232000A520FFF73FFF5A20FFF73CFF1220FFF7E1
:1023300039FFA120FFF736FF002E02DAC6F5004074
:1023400006B2C6F307252846FFF72CFF2C44F5B24A
:102350002846FFF727FF2C44002F02DAC7F500407C
:1023600007B2C7F307252846FFF71CFF2C44FDB230
:102370002846FFF717FF2C44B8F1000F03DAC8F521
:1023800000400FFA80F8C8F307252846FFF70AFF38
:102390002C4408F0FF052846FFF704FF2C44B9F150
:1023A000000F03DAC9F500400FFA80F9C9F30725D9
:1023B0002846FFF7F7FE2C4409F0FF052846FFF7F3
:1023C000F1FE2C44BAF1000F03DACAF500400FFA0F
:1023D00080FACAF307252846FFF7E4FE2C440AF0EA
:1023E000FF052846FFF7DEFE2C44BBF1000F03DAA1
:1023F000CBF500400FFA80FBCBF307252846FFF70B
:10240000D1FE2C440BF0FF052846FFF7CBFE2C44F1
:102410000C98C0F307252846FFF7C4FE2C440C98FF
:10242000C5B22846FFF7BEFE2C44E0B2FFF7BAFE65
:10243000AA20FFF7B7FEBDE8F09F2DE9F05F064642
:102440000F4690469946DDE90AABB824A520FFF770
:10245000A9FE5A20FFF7A6FE1620FFF7A3FEA22032
:10246000FFF7A0FE002E02DAC6F5004006B2C6F362
:1024700007252846FFF796FE2C44F5B22846FFF7BD
:1024800091FE2C44002F02DAC7F5004007B2C7F3D3
:1024900007252846FFF786FE2C44FDB22846FFF7A5
:1024A00081FE2C44B8F1000F03DAC8F500400FFAA2
:1024B00080F8C8F307252846FFF774FE2C4408F07F
:1024C000FF052846FFF76EFE2C44B9F1000F03DA32
:1024D000C9F500400FFA80F9C9F307252846FFF730
:1024E00061FE2C4409F0FF052846FFF75BFE2C44F3
:1024F000BAF1000F03DACAF500400FFA80FACAF306
:1025000007252846FFF74EFE2C440AF0FF05284613
:10251000FFF748FE2C440BE00400020000080140D5
:102520000044004029010020B6020020A0860100DE
:10253000BBF1000F03DACBF500400FFA80FBCBF3C1
:1025400007252846FFF72EFE2C440BF0FF052846F2
:10255000FFF728FE2C440C98002804DA0C98C0F5EC
:10256000004000B20C900C98C0F307252846FFF7F6
:1025700019FE2C440C98C5B22846FFF713FE2C44D4
:102580000D98002804DA0D98C0F5004000B20D90B7
:102590000D98C0F307252846FFF704FE2C440D983C
:1025A000C5B22846FFF7FEFD2C440E98002804DA39
:1025B0000E98C0F5004000B20E900E98C0F30725AB
:1025C0002846FFF7EFFD2C440E98C5B22846FFF7CA
:1025D000E9FD2C44E0B2FFF7E5FDAA20FFF7E2FD9C
:1025E000BDE8F09F2DE9F04F85B006460F469046B6
:1025F0009946DDE90EABB625A5208DF800005A20DE
:102600008DF8010012208DF80200A4208DF803003F
:10261000002E02DAC6F5004006B2C6F307248DF894
:1026200004402544F4B28DF805402544002F02DA19
:10263000C7F5004007B2C7F307248DF806402544CC
:10264000FCB28DF807402544B8F1000F03DAC8F555
:1026500000400FFA80F8C8F307248DF8084025449D
:1026600008F0FF048DF809402544B9F1000F03DAA2
:10267000C9F500400FFA80F9C9F307248DF80A4024
:10268000254409F0FF048DF80B402544BAF1000FF2
:1026900003DACAF500400FFA80FACAF307248DF86E
:1026A0000C4025440AF0FF048DF80D402544BBF191
:1026B000000F03DACBF500400FFA80FBCBF30724C1
:1026C0008DF80E4025440BF0FF048DF80F40254493
:1026D0001098C0F307248DF8104025441098C4B218
:1026E0008DF811402544E8B28DF81200AA208DF82B
:1026F0001300002405E01DF80400FFF753FD601CE3
:10270000C4B2142CF7DB05B0BDE8F08F10B540F271
:102710002771584802F092FDE0B1574802780078DE
:10272000401C554B18705548815C524802F002FD20
:1027300040F227714F4802F0ABFD4F4800785049F6
:102740000978884267D1002240F22771494802F097
:1027500090FC60E040F22551464802F06FFD0028F1
:1027600059D0444802F0EAFCC4B2A52C0DD145482A
:10277000007840F080004349087043490878411CC4
:10278000414A117041490C5437E05A2C1CD13D4844
:10279000007800F0800048B100203B4908703948BB
:1027A000007820F040003749087006E03649087884
:1027B000411C354A117035490C543248007820F0DC
:1027C00080003049087018E02F490878411C2E4AD3
:1027D00011702E490C542B48007820F080002949B4
:1027E00008702A48007811460978884205D12548A2
:1027F000007840F04000234908702348007864289E
:1028000004D121480078401E1F49087040F225512C
:10281000184802F03DFD10BD10B50022002104E073
:102820001A48405C0244481CC1B218480078801E17
:102830008842F5DCD3B215480078801E134C205C2A
:10284000834201D1012010BD0020FCE700B50D48F6
:10285000007800F0400058B10A48007820F04000AD
:1028600008490870FFF7D8FF10B10848407800BD4C
:10287000FF20FCE70044004028010020B6020020B1
:10288000290100202B0100202A010020B80300208C
:1028900008B525208DF8000001208DF801000720E3
:1028A0008DF8020001208DF80300684601F00FF852
:1028B00008BD10B586B00446012144F2040001F0C1
:1028C0008BFB4FF40070ADF8140018208DF8170042
:1028D00003208DF8160005A9FE4801F0C1F84FF459
:1028E0008060ADF8140004208DF8170005A9F948A0
:1028F00001F0B6F801940020ADF80800ADF80A0028
:10290000ADF80C00ADF810000C20ADF80E0001A9D8
:10291000F14802F016FB002240F22771EE4802F067
:10292000A8FB4021EC4802F080FC0121EA4802F0BB
:1029300094FBFFF7ADFF06B010BD10B50446E748A5
:1029400001780078401CE54A1070E54844540122A3
:1029500040F22771E04802F08CFB10BD10B500BFBB
:10296000DD48008800F020000028F9D0DA4802F0A5
:10297000E5FBC0B210BD10B504460FE020780D286D
:1029800002D1FFF7DAFF08E020780A2802D1FFF72A
:10299000D4FF02E02078FFF7D0FF641C20780028E5
:1029A000ECD110BD10B504460A20B0EB241F05DDA4
:1029B000302101EB2410FFF7C0FF06E00A21C1EB34
:1029C00024114131C8B2FFF7B8FF04F00F000A2804
:1029D00006DA04F00F0101F13000FFF7AEFF05E069
:1029E00004F00F013731C8B2FFF7A7FF2020FFF72F
:1029F000A4FF10BD10B504462012FFF7D3FFE0B2CC
:102A0000FFF7D0FF10BD10B50446200CFFF7F2FF12
:102A1000A0B2FFF7EFFF10BD2DE9F0410546B14C24
:102A2000002713E0B5FBF4F0C6B2002E02DC0FB9AC
:102A3000012C05D106F13001C8B2FFF77EFF012756
:102A400006FB14550A20B4FBF0F400BF002CE9D1BA
:102A5000BDE8F08110B50446002C04DA604204B2EF
:102A60002D20FFF76AFF2046FFF7D6FF10BD70B597
:102A70000446002C04DA604204B22D20FFF75DFF0B
:102A80000A2094FBF0F52846FFF7C6FF2E20FFF73B
:102A900054FF0A2094FBF0F100FB11452846FFF794
:102AA000BBFF70BD2DE9F05F06460F469046994684
:102AB000DDE90AABB324A520FFF73FFF5A20FFF75B
:102AC0003CFF1220FFF739FFA120FFF736FF002E51
:102AD00002DAC6F5004006B2C6F307252846FFF71E
:102AE0002CFF2C44F5B22846FFF727FF2C44002F7B
:102AF00002DAC7F5004007B2C7F307252846FFF7FB
:102B00001CFF2C44FDB22846FFF717FF2C44B8F1F8
:102B1000000F03DAC8F500400FFA80F8C8F3072564
:102B20002846FFF70AFF2C4408F0FF052846FFF768
:102B300004FF2C44B9F1000F03DAC9F500400FFA85
:102B400080F9C9F307252846FFF7F7FE2C4409F062
:102B5000FF052846FFF7F1FE2C44BAF1000F03DA17
:102B6000CAF500400FFA80FACAF307252846FFF796
:102B7000E4FE2C440AF0FF052846FFF7DEFE2C4455
:102B8000BBF1000F03DACBF500400FFA80FBCBF36B
:102B900007252846FFF7D1FE2C440BF0FF052846F9
:102BA000FFF7CBFE2C440C98C0F307252846FFF70F
:102BB000C4FE2C440C98C5B22846FFF7BEFE2C4438
:102BC000E0B2FFF7BAFEAA20FFF7B7FEBDE8F09F1C
:102BD0002DE9F05F06460F4690469946DDE90AABBF
:102BE000B824A520FFF7A9FE5A20FFF7A6FE16205D
:102BF000FFF7A3FEA220FFF7A0FE002E02DAC6F523
:102C0000004006B2C6F307252846FFF796FE2C447F
:102C1000F5B22846FFF791FE2C44002F02DAC7F5E3
:102C2000004007B2C7F307252846FFF786FE2C446D
:102C3000FDB22846FFF781FE2C44B8F1000F03DAFD
:102C4000C8F500400FFA80F8C8F307252846FFF7BB
:102C500074FE2C4408F0FF052846FFF76EFE2C4456
:102C6000B9F1000F03DAC9F500400FFA80F9C9F392
:102C700007252846FFF761FE2C4409F0FF0528468A
:102C8000FFF75BFE2C44BAF1000F03DACAF50040EF
:102C90000FFA80FACAF307252846FFF74EFE2C44A8
:102CA0000AF0FF052846FFF748FE2C44BBF1000F51
:102CB00003DACBF500400FFA80FBCBF3072528465B
:102CC000FFF73BFE2C440BF0FF052846FFF735FECF
:102CD0002C4409E000080140003801402D0100208B
:102CE0001C040020A08601000C98002804DA0C982F
:102CF000C0F5004000B20C900C98C0F307252846A0
:102D0000FFF71BFE2C440C98C5B22846FFF715FEB2
:102D10002C440D98002804DA0D98C0F5004000B24C
:102D20000D900D98C0F307252846FFF706FE2C44AA
:102D30000D98C5B22846FFF700FE2C440E980028D7
:102D400004DA0E98C0F5004000B20E900E98C0F361
:102D500007252846FFF7F1FD2C440E98C5B22846FA
:102D6000FFF7EBFD2C44E0B2FFF7E7FDAA20FFF7E9
:102D7000E4FDBDE8F09F10B540F22771104802F065
:102D80005DFAD8B10F4802780078401C0D4B1870DE
:102D90000D48815C0A4802F0CDF940F227710848DD
:102DA00002F076FA0748007808490978884205D188
:102DB000002240F22771024802F05BF910BD0000CA
:102DC000003801402C0100201C0400202D010020AF
:102DD0002DE9F04706460C460027002509E056F885
:102DE000250004F0B1FD8046394604F02DFC07466D
:102DF0006D1CA542F3DB204604F0A6FD8146494642
:102E0000384604F08FFC804604F082FDBDE8F08770
:102E100010B50446FD48FE49097840F82140FC49B8
:102E20000978481CC11700EBD1614911A0EB411191
:102E3000F74A11702021F548FFF7CAFFF5490860ED
:102E400010BD10B50446F448F449097840F8214013
:102E5000F2490978481CC11700EBD1614911A0EB78
:102E60004111EE4A11702021EB48FFF7B1FFEC4908
:102E7000086010BD10B50446EA48EB49097840F8EF
:102E80002140E9490978481CC11700EBD16149117B
:102E9000A0EB4111E44A11702021E248FFF798FFAE
:102EA000E249086010BDE149096801607047DC49EA
:102EB000096801607047D74909680160704770B5BB
:102EC00004460D46164633462A462146EE20FDF7B7
:102ED0002EFC70BD70B504460D462A462146EE20F4
:102EE000FDF785FC70BD30B58BB004460D465DB175
:102EF000CF480078342202EB8010C1B2F420FFF7F3
:102F0000E9FF1E20FDF78CFACA4A0321F620FFF7DD
:102F1000D6FFC84800780004C649497840EA012035
:102F2000C44989780843C249B1F90010C1F10801C8
:102F300008410A90C0480068A0F57A60059005989D
:102F400040430013BD49B1F900104843C012099035
:102F5000BB48B0F9000005994843C0120890DDE96C
:102F6000081008440790B748B0F90000019007998D
:102F7000019801EB8000AE490978884001900198E2
:102F8000801C80100690B048B0F9000005994843B5
:102F900040130990059840430013AC49B1F9001063
:102FA000484300140890DDE908100844801C801094
:102FB0000790A7480088079901F500414843C00BD6
:102FC000039006990A98401A99490A784CF25031B0
:102FD0001141484302900298B0F1004F06D2029886
:102FE00040000399B0FBF1F0049005E0DDE9020137
:102FF00090FBF1F04000049004980012049909122B
:103000004843099040F6DE3109984843001409907E
:1030100090490498484300140890DDE908100844DA
:1030200000F6CF60049901EB201020600BB030BD9A
:103030002DE9F34F89B0824608A80A99FFF753FF9C
:103040000898FFF7FEFE76480068089082480068FE
:1030500003F06BFFCDE906018048006804F074FCC2
:103060000190089804F070FC0090019904F05AFB5C
:10307000834604F0BDFA7A4A7A4BCDE9020102F0A8
:10308000C9FF06460022784B04F0D6F80446002219
:10309000764B03F09DFFCDE90401DDE9062303F043
:1030A00001FD804603F012FFCAF800000BB0BDE836
:1030B000F08F2DE9F047054635B12E21F420FFF7BA
:1030C00009FF0A20FDF7ACF95A4A0221F620FFF762
:1030D000F6FE584840785749097840EA0126644886
:1030E0000088301A634909884843C4136248B0F91C
:1030F00000806248B0F900904FEAC82004EB090153
:1031000090FBF1F7E0194C490860BDE8F08770B515
:1031100004460D462846FFF7CCFF474800680830B4
:103120000011206070BD10B555480078012806D008
:10313000022810D0032826D004284AD134E02E21BA
:10314000F420FFF7C7FE02204D490870FDF79AFEF4
:103150004C49086041E0FDF795FE4A490968401A6C
:1031600041F2707188420DD90020FFF7A2FF0021C3
:103170002848FFF7CCFF27480068FFF749FE0320E7
:103180003F49087029E02A480078342202EB801079
:10319000C1B2F420FFF79EFE042039490870FDF704
:1031A00071FE3849086018E0FDF76CFE3549096882
:1031B000401A47F2305188420AD900211B48FFF7D4
:1031C00037FF1A480068FFF755FE01202C490870A8
:1031D00003E001202A49087000BF00BF10BD10B5F0
:1031E000144A0221AA20FFF76AFE124840781149CA
:1031F000097840EA012000B2124908800D4A0221F4
:10320000AC20FFF75CFE0B4840783DE02005002035
:10321000780100206C010020A00500207901002029
:1032200070010020200600207A0100207401002097
:1032300054010020500100204801002038010020E6
:10324000320100203001002034010020360100202E
:103250004001002043E3FFFF5801002060010020EF
:10326000EBE2361AC05BC83F0000F03F1AE950415C
:1032700044010020420100203C0100203E010020CA
:10328000680100204C0100208349097840EA0120B0
:1032900000B282490880804A0221AE20FFF70FFE6B
:1032A0007D4840787C49097840EA012000B27C4999
:1032B0000880794A0221B020FFF701FE7648407865
:1032C0007549097840EA012076490880724A02214E
:1032D000B220FFF7F4FD704840786F49097840EA62
:1032E0000120714908806C4A0221B420FFF7E7FDF4
:1032F000694840786849097840EA01206B490880AC
:10330000654A0221B620FFF7DAFD6348407862493A
:10331000097840EA012000B2654908805E4A02212E
:10332000B820FFF7CCFD5C4840785B49097840EA5B
:10333000012000B25F490880574A0221BA20FFF7F6
:10334000BEFD554840785449097840EA012000B252
:1033500059490880504A0221BC20FFF7B0FD4E4871
:1033600040784D49097840EA012000B2534908806D
:10337000494A0221BE20FFF7A2FD4748407846494E
:10338000097840EA012000B24D49088010BD4D493E
:10339000088070472DE9F34F89B0824608A80A9942
:1033A000FFF7A1FD4848006803F0BFFDCDE9060125
:1033B0004648006804F0C8FA4549009004F0B2F9A4
:1033C0004FF07E51019004F0B7FB834604F010F9F2
:1033D000404A414BCDE9020102F01CFE04460D4675
:1033E000089803F0A2FD064622462B4603F016FC81
:1033F000CDE90401DDE9062303F054FB804603F028
:1034000065FDCAF800000BB0BDE8F08F38B5044682
:103410002E48046001216846FFF7BCFF2F49009841
:10342000086038BD08B50246284802606846FFF7C4
:103430003EFD2A490098086008BD38B50446274873
:10344000046001216846FFF7F3FD204900980860F9
:1034500038BD70B506460C461546FFF7C0FE012084
:10346000FFF727FE3046FFF792FF002D03DD2046D1
:10347000FFF7CCFF02E02046FFF7DFFF70BD10B57D
:10348000002017490860104908600122002103202C
:10349000FFF7DFFF10BD00005001002032010020C7
:1034A000340100204001002042010020440100209E
:1034B00036010020380100203A0100203C010020A4
:1034C0003E010020540100205C0100206401002026
:1034D000D048874A85EB51B81E0515406001002091
:1034E0005801002070B5204E204D01F00AFF2846FB
:1034F00001F04CFF002408E036F8140081B22846A1
:1035000002F047F8AD1C601C04B20E2CF4D301F09D
:1035100004FF70BD70B5144D144E01F0F2FE00248E
:1035200005E030882880B61CAD1C601C04B20E2C4F
:10353000F7D301F0F2FE0C48B0F900000C498842C4
:1035400011D04AF25A5008490880002048808880EB
:10355000C8800881488188814FF07E5008614861A9
:103560008861FFF7BFFF70BDA006002000F80008CB
:103570005AA5FFFF8AB000244820FCF735FFFEF76C
:103580000DFAFEF735FA4FF4E130FFF792F94FF4F8
:10359000E130FEF7C0FDFFF7BDFFFCF77DFF4FF404
:1035A0009670FCF73DFFFDF777FCFDF76BFCA84933
:1035B00008604BE107A8FEF7FBF8601C04B2FFF7B8
:1035C000B2FDFDF75FFCA2490968401A41F288315B
:1035D00088427DD99F480078012802D0022878D1FE
:1035E00095E09D48FFF767FC9C48FFF760FC9C480E
:1035F000FFF759FC994800680A2190FBF1F000B2EE
:1036000006909748006890FBF1F000B20590099889
:1036100003F0EEFF07460022924B03F0D9FC05466B
:1036200003F054FC0FFA80FA089803F0E1FF074614
:1036300000228C4B03F0CCFC054603F047FC0FFA4C
:1036400080FB079803F0D4FF05460022854B03F06A
:10365000BFFC074603F03AFC00B20490200101B21F
:103660007D4A128812B20698CDE900200291524696
:103670005946DDE90403FFF715FA784800680A2186
:1036800090FBF1F00FFA80FA7548006890FBF1F0BA
:103690000FFA80FB099803F0ABFF07460022714B3D
:1036A00003F096FC054603F011FC00B20690089862
:1036B00003F09EFF074600226A4B03F089FC054693
:1036C00003F004FC00B20590079803F091FF01E0BD
:1036D0009CE078E007460022624B03F079FC054647
:1036E00003F0F4FB00B204906420604300B25A4936
:1036F000098809B25B46CDE9001A029004A807C800
:10370000FEF705FE002402205249087077E0564873
:103710005649574B574ACDE9001057495748FEF7CD
:1037200036FC574A57495848FDF7D7F95448B0F97D
:1037300000005449B1F90010534AB2F900204A4B35
:10374000B3F90030CDE90132CDE903104748B0F9B3
:10375000000000904648B0F900304648B0F900201B
:103760004548B0F900104548B0F90000FFF730FABD
:103770004348B0F900004349B1F90010424AB2F998
:103780000020394BB3F90030CDE90132CDE9031007
:103790003648B0F9000000903548B0F9003035489F
:1037A000B0F900203448B0F900103448B0F90000F6
:1037B000FEF743FE0120274908703448007808B11D
:1037C000032008701BE000203149B1F90010314A94
:1037D000B2F90020CDE9002102902F48B0F9003065
:1037E0002E48B0F900202E48B0F900102D48B0F94D
:1037F0000000FEF7F7FE01201649087000BF00BF69
:10380000FDF740FB12490860FEF748F9FFF71EF884
:103810008146FF281AD0B9F1E00F09D0B9F1E10FC4
:1038200010D0B9F1E20F06D0B9F1E30F0DD106E0E7
:10383000FEF7D3FB09E00020FFF7F4FD05E0FDF7FC
:1038400002FA02E0FDF722FA00BF00BFB2E6000074
:103850009C010020A601002090010020940100207E
:1038600098010020000024408601002084010020EF
:1038700082010020800100207E0100207C010020C8
:103880008C0100208A0100208801002044000020D3
:103890002E0000202C0000202A00002028000020FC
:1038A0002600002024000020704700BFFEE700BF74
:1038B000FEE700BFFEE700BFFEE7704770477047B6
:1038C0007047000031490143314A1160704770B5BB
:1038D000002100230F22C47804B32D4C246804F483
:1038E000E064C4F5E064210AC1F10403CA404478ED
:1038F00004FA03F18478144021430901254C067829
:10390000A155047804F01F050124AC4005786D1121
:10391000AD0005F1E025C5F8004109E0047804F0A8
:103920001F050124AC401C4D0678761145F8264051
:1039300070BD1A4A0A400243154B1B1F1A6070479C
:1039400039B1134A121D12680243114B1B1D1A6034
:1039500006E00F4A121D126882430D4B1B1D1A60B0
:103960007047042808D14FF0E021096941F00401B3
:103970004FF0E022116107E04FF0E021096921F0EA
:1039800004014FF0E0221161704700000000FA05C9
:103990000CED00E000E400E080E100E080FFFF1FAC
:1039A00010B50446CC48844208D10121042000F01F
:1039B0002DFB0021042000F029FB46E0C74884428B
:1039C00008D10121082000F021FB0021082000F08F
:1039D0001DFB3AE0C248844208D10121102000F0CA
:1039E00015FB0021102000F011FB2EE0BD488442A1
:1039F00008D10121202000F009FB0021202000F047
:103A000005FB22E0B848844208D10121402000F0A3
:103A1000FDFA0021402000F0F9FA16E0B348844294
:103A200008D10121802000F0F1FA0021802000F06F
:103A3000EDFA0AE0AE48844207D10121801500F07A
:103A4000E5FA0021A01500F0E1FA10BD10B5012142
:103A5000084600F0DBFA0021012000F0D7FA10BD83
:103A60002DE9F04102460025002600200023002415
:103A7000002791F803C00CF00F0591F803C00CF07B
:103A8000100CBCF1000F03D091F802C04CEA050500
:103A900091F800C0BCF1000F31D0146800202BE079
:103AA0004FF0010C0CFA00F3B1F800C00CEA030669
:103AB0009E4220D183004FF00F0C0CFA03F7BC4359
:103AC00005FA03FC4CEA040491F803C0BCF1280F8A
:103AD00006D14FF0010C0CFA00FCC2F814C00AE049
:103AE00091F803C0BCF1480F05D14FF0010C0CFA5E
:103AF00000FCC2F810C0401C0828D1D31460B1F8F3
:103B000000C0BCF1FF0F34DD546800202EE000F14E
:103B1000080C4FF0010808FA0CF3B1F800C00CEAE9
:103B200003069E4221D183004FF00F0C0CFA03F7DD
:103B3000BC4305FA03FC4CEA040491F803C0BCF151
:103B4000280F05D100F1080C08FA0CF8C2F814800F
:103B500091F803C0BCF1480F07D100F1080C4FF0F9
:103B6000010808FA0CF8C2F81080401C0828CED3CF
:103B70005460BDE8F0814FF6FF7101800221817031
:103B80000421C17070470246002093680B400BB1BE
:103B9000012000E0002070470146886880B270472D
:103BA00002460020D3680B400BB1012000E000204A
:103BB00070470146C86880B2704701617047416133
:103BC00070470AB1016100E041617047C160704710
:103BD0004FF480320A438261816182618269826925
:103BE000704702460020434B18684FF68073184018
:103BF00040EA021008433F4B186070473E49C861D5
:103C00007047F0B50A46002300240021002500F08B
:103C10000046B6F1004F02D1364EF16901E0354E53
:103C20007168C0F3034583B200F44016B6F5401F37
:103C300008D121F070612F4E766826F070662D4F06
:103C40007E6012E000F48016B6F5801F06D10326D0
:103C500006FA05F4A14341F0706106E0460D360115
:103C600003FA06F6B14341F0706122B1460D360108
:103C700003FA06F6314300F00046B6F1004F02D1D8
:103C80001C4EF16101E01B4E7160F0BD30B50022A9
:103C90008B071C0F0F2303FA04F2164B08338C100A
:103CA00053F824309343134C08348D1044F82530D6
:103CB00023468C1053F824308C07240F00FA04F4A8
:103CC00023430C4C08348D1044F8253030BD0A498C
:103CD000DC3108607047000000080140000C014022
:103CE000001001400014014000180140001C014078
:103CF000002001400000014000002042DF48006831
:103D000040F00100DD49086008464068DC49084091
:103D1000DA49486008460068DA490840D74908602F
:103D20000846006820F4802008600846406820F4B7
:103D3000FE0048604FF41F0088607047CF49096853
:103D400021F48031CD4A11601146096821F48021A7
:103D50001160B0F5803F03D0B0F5802F0ED106E0A2
:103D6000C649096841F48031C44A116007E0C3497B
:103D7000096841F4A021C14A116000E000BF00BF02
:103D8000704710B501460022002300204A11012A85
:103D900002D1BA4C236806E0022A02D1B74C236A4A
:103DA00001E0B64C636A01F01F02012494401C40FC
:103DB0000CB1012000E0002010BD38B500200090BB
:103DC0000024002500BF3120FFF7DBFF05460098E7
:103DD000401C00900098B0F5A06F01D0002DF2D0EB
:103DE0003120FFF7CEFF08B1012400E00024204677
:103DF00038BD01460020A14A106820F0F80040EAD2
:103E0000C10010607047A04908607047024600205A
:103E10009A4B586820F47C1042EA01031843974BF0
:103E20005860704798490866704701460020934AD9
:103E3000506820F003000843506070478F48406886
:103E400000F00C007047014600208C4A506820F0BA
:103E5000F00008435060704701460020874A5068D0
:103E600020F4E06008435060704701460020834A18
:103E7000506820F4605040EAC1005060704729B19A
:103E80007E4A527A02437D4B5A7204E07B4A527A50
:103E900082437A4B5A7270477B49D8310860704729
:103EA00001460020754A506820F4404008435060A5
:103EB00070470021714A20321170704A82F8201038
:103EC000012802D004280AD104E001216B4A2032E3
:103ED000117005E00521694A2032117000E000BF31
:103EE00000BF70476949086070476449096A014327
:103EF000624A11627047654944390860704730B5BD
:103F000000210022002400235C4D6D6805F00C01A7
:103F100021B1042905D0082923D105E05C4D0560B5
:103F200022E05B4D05601FE0544D6D6805F4701292
:103F3000524D6D6805F48034022505EB92421CB9A0
:103F4000544D554305600BE04C4D6D6805F400354C
:103F50001DB1504D5543056002E04D4D5543056080
:103F600002E04B4D056000BF00BF444D6D6805F099
:103F7000F0010909484D6B5C0568DD4045603F4D27
:103F80006D6805F4E061090A434D6B5C4568DD40EE
:103F900085603A4D6D6805F46051C90A3E4D6B5C11
:103FA0004568DD40C560354D6D6805F44041890BBD
:103FB0003A4D6B5CC568B5FBF3F5056130BD29B1C1
:103FC0002E4A526902432D4B5A6104E02B4A526932
:103FD00082432A4B5A61704729B1284A92690243A9
:103FE000264B9A6104E0254A92698243234B9A61E9
:103FF000704729B1214AD2690243204BDA6104E0BB
:104000001E4AD26982431D4BDA61704729B11B4AAF
:10401000D2680243194BDA6004E0184AD26882433E
:10402000164BDA60704729B1144A12690243134BE8
:104030001A6104E0114A12698243104B1A617047F9
:1040400012494039086070470F49C86470470B49EE
:10405000C87170470948406A40F08070074948625B
:10406000704701460020054A92680A400AB10120C3
:1040700000E000207047014988727047001002403C
:104080000000FFF8FFFFF6FE0000424280044242BB
:1040900000127A0000093D00A7010020B7010020AE
:1040A00010B50446FE48844208D10121C014FFF730
:1040B000ADFF0021E014FFF7A9FFC4E0B4F1804F89
:1040C00008D101210846FFF7AEFF00210120FFF7CC
:1040D000AAFFB8E0F348844208D101210220FFF78B
:1040E000A2FF00210220FFF79EFFACE0EE488442D1
:1040F00008D101210420FFF796FF00210420FFF7DB
:1041000092FFA0E0E948844208D101210820FFF78E
:104110008AFF00210820FFF786FF94E0E4488442EC
:1041200008D101211020FFF77EFF00211020FFF7AA
:104130007AFF88E0DF48844208D101212020FFF780
:1041400072FF00212020FFF76EFF7CE0DA488442F6
:1041500008D101214014FFF759FF00216014FFF737
:1041600055FF70E0D548844209D10121C804FFF70A
:104170004DFF00214FF40020FFF748FF63E0D048D7
:10418000844209D101210805FFF740FF00214FF4C7
:104190008010FFF73BFF56E0CA48844209D1012155
:1041A0004805FFF733FF00214FF40010FFF72EFF03
:1041B00049E0C548844208D101214020FFF733FF80
:1041C00000214020FFF72FFF3DE0C048844208D186
:1041D00001218020FFF727FF00218020FFF723FF28
:1041E00031E0BB48844208D101218015FFF71BFF55
:1041F0000021A015FFF717FF25E0B648844209D13A
:1042000001210804FFF702FF00214FF48030FFF77F
:10421000FDFE18E0B048844209D101214804FFF7AF
:10422000F5FE00214FF40030FFF7F0FE0BE0AB4845
:10423000844208D101218804FFF7E8FE00214FF4F1
:104240008020FFF7E3FE10BD00220288944B9842C5
:104250000ED0994B98420BD0B0F1804F08D0914BC3
:10426000984205D0904B984202D0904B984204D18E
:104270004FF68F731A404B881A438D4B984207D0E4
:104280008C4B984204D04FF6FF431A40CB881A4318
:1042900002808B8883850B880385814B98420BD0E5
:1042A000854B984208D08B4B984205D08A4B984258
:1042B00002D08A4B984201D10B7A03860123838274
:1042C000704770B5002400220023058C4FF6FE765F
:1042D00035400584028C8388048B4FF68F752C4003
:1042E000B51E2C400D882C43751E2A400D892A438B
:1042F0004D882A436A4DA8420BD06F4DA84208D082
:10430000744DA84205D0744DA84202D0734DA84206
:1043100013D14FF6F7752A404D892A434FF6FB75A6
:104320002A408D882A434FF6FF652B404FF6FF55F4
:104330002B408D892B43CD892B4383800483CD88EB
:104340008586028470BD70B5002400220023058C90
:104350004FF6EF7635400584028C8388048B48F64F
:10436000FF752C404FF6FF452C400D884FF6FF7629
:1043700006EA05252C434FF6DF752A400D8906EA2B
:1043800005152A434D8806EA05152A43444DA842DF
:1043900002D0494DA8421DD14FF67F752A404D8964
:1043A0004FF6FF7606EA05152A434FF6BF752A40F9
:1043B0008D8806EA05152A434FF6FF352B404FF24C
:1043C000FF752B408D8906EA85052B43CD8906EACA
:1043D00085052B4383800483CD880587028470BDC7
:1043E00070B5002400220023058C4FF6FF6635408F
:1043F0000584028C8388848B4FF68F752C404FF692
:10440000FC752C400D882C434FF6FF552A400D8932
:104410004FF6FF7606EA05252A434D8806EA05256C
:104420002A431F4DA84202D0234DA8421DD14FF26E
:10443000FF752A404D894FF6FF7606EA05252A4387
:104440004FF6FF352A408D8806EA05252A434EF6A9
:10445000FF752B404DF6FF752B408D8906EA05153B
:104460002B43CD8906EA05152B4383808483CD88B1
:104470008587028470BD70B5002200230024058C5E
:104480004EF6FF7635400584038C8488828B48F68F
:10449000FF752A404FF6FF452A400D8820E00000B6
:1044A000002C01400004004000080040000C0040C7
:1044B000001000400014004000340140004C014056
:1044C000005001400054014000180040001C004012
:1044D00000200040004001400044014000480140ED
:1044E0004FF6FF7606EA05252A434DF6FF752B4069
:1044F0000D8906EA05352B434D8806EA05352B4321
:10450000FA4DA84202D0FA4DA84208D14BF6FF75E9
:104510002C408D894FF6FF7606EA85152C43848062
:104520008283CD88A0F84050038470BD828B4FF207
:10453000FF331A408283828B4FF6FF7303EA012315
:104540001A4382837047F0B50C46154600220021BD
:104550000026078C4EF6FF7C07EA0C070784828B47
:10456000018C4FF6FF7707EA043640F6FF473A40E2
:104570004FF6FF7707EA05273A434FF6FF7707EA3A
:1045800003373A43D94FB8420ED0D94FB8420BD077
:10459000B0F1804F08D0D74FB84205D0D64FB842BF
:1045A00002D0D64FB84206D14DF6FF77394046F4D7
:1045B0008057394305E047F6FF57394044F48057A8
:1045C000394382830184F0BD828B4FF6F3731A4026
:1045D0008283828B0A4382837047F0B50C4615466E
:1045E000002200210026078C4FF6FF6C07EA0C071B
:1045F0000784828B018C4FF6FF7707EA04264FF67B
:104600000C773A404FF6FF7707EA03172F433A43F8
:10461000B64FB8420ED0B64FB8420BD0B0F1804F73
:1046200008D0B44FB84205D0B34FB84202D0B34F10
:10463000B84206D14FF6FF57394046F480773943E8
:1046400005E04FF2FF57394044F4807739438283C5
:104650000184F0BD028B4FF2FF331A400283028BBC
:104660004FF6FF7303EA01231A4302837047F0B544
:104670000C461546002200210026078C4FF6EF7CE1
:1046800007EA0C070784028B018C4FF6FF7707EAD5
:10469000041640F6FF473A404FF6FF7707EA033724
:1046A0003A434FF6FF7707EA05273A438F4FB84260
:1046B0000ED08F4FB8420BD0B0F1804F08D08D4F45
:1046C000B84205D08C4FB84202D08C4FB84206D1C8
:1046D0004FF6DF77394046F01007394305E04FF6D3
:1046E0005F77394044F01007394302830184F0BDFD
:1046F000028B4FF6F3731A400283028B0A43028344
:104700007047F0B50C46154600220021068C4FF686
:10471000FE773E400684028B018C4FF60C763240C9
:104720007E1C06EA03162E433243704EB0420ED072
:104730006F4EB0420BD0B0F1804F08D06D4EB042FA
:1047400005D06D4EB04202D06C4EB04206D14FF64D
:10475000FD76314044F00106314305E04FF6F57631
:10476000314044F00106314302830184F0BD70B54D
:1047700005460C465D4885420ED05D4885420BD00B
:10478000B5F1804F08D05B48854205D05A48854234
:1047900002D05A48854200D100E000BF208850B9BD
:1047A0002389A28861882846FFF7ABFFE188284665
:1047B000FFF79EFF25E0208804280AD12389A288DC
:1047C00061882846FFF753FFE1882846FFF742FF3C
:1047D00017E0208808280AD12389A2886188284602
:1047E000FFF7FBFEE1882846FFF7EEFE09E023898C
:1047F000A28861882846FFF7A6FEE1882846FFF7D1
:1048000095FE70BD2DE9F04105460C4600260127B6
:10481000608808B9022600E00026A088012801D19E
:10482000022700E001272088A0B92389A288618897
:104830002846FFF766FFE1882846FFF759FF2389DE
:104840003A4631462846FFF712FFE1882846FFF72F
:1048500001FF13E02389A28861882846FFF707FF3C
:10486000E1882846FFF7F6FE23893A463146284676
:10487000FFF747FFE1882846FFF73AFFBDE8F081E0
:104880000A884B881A438B881A43CB881A430B89B2
:104890001A434B891A438B891A43A0F84420704766
:1048A0004FF6FF71818000210180C180418001723B
:1048B00070470021018041808180C1800181418158
:1048C0008181C18170470021018041800121818067
:1048D0000021C180018170470021018041808180D9
:1048E000C18001814181818170470000002C01401D
:1048F000003401400004004000080040000C00406B
:1049000021B1028842F00102028004E002884FF6E1
:10491000FE731A400280704731B1B0F8442042F46F
:104920000042A0F8442005E0B0F84420C2F30E0293
:10493000A0F8442070471AB183890B43838102E0B9
:1049400083898B43838170478182704741EA0203E8
:10495000A0F8483070471AB183890B43838102E085
:1049600083898B438381704701894FF6F872114028
:10497000018170470A46002101894FF68F73194063
:1049800011430181704730B504460D462946204643
:10499000FFF7F0FF208940F00700208130BD2DE9AE
:1049A000F04104460D4616461F46602D06D13B4693
:1049B000012231462046FFF75AFE05E03B46012220
:1049C00031462046FFF79DFE29462046FFF7D2FFDD
:1049D000208940F007002081BDE8F08130B50C4609
:1049E00000210189C9B24FF6FF7505EA0325154379
:1049F00025432943018130BD2DE9F04105460E468E
:104A000017469846002443463A4631462846FFF763
:104A1000E5FF2C894FF6F870044044F007044FF688
:104A20008F70044044F070042C81BDE8F081F0B533
:104A300004460D4616461F463B463246294620464A
:104A4000FFF7CCFF208940F480402081F0BD018534
:104A5000828270470A46002101884FF68F73194001
:104A6000114301807047F0B50C4615461E460021E3
:104A7000002200230189028B038C4FF6F87739401E
:104A800021434FF6FC473A4040F201173A434FF6B4
:104A9000DD773B404FF6FF7707EA06172F433B438E
:104AA000018102830384F0BD0A460021018B4FF689
:104AB0008F7319401143018370470A460021018B0F
:104AC00048F6FF7319404FF6FF7303EA02231943B8
:104AD000018370470A460021818B4FF68F7319407E
:104AE0001143818370470A460021818B48F6FF738A
:104AF00019404FF6FF7303EA02231943818370477D
:104B000021B1028842F08002028004E002884FF660
:104B10007F731A400280704721B1828842F00402FC
:104B2000828004E082884FF6FB731A4082807047CF
:104B300021B1828842F00802828004E082884FF628
:104B4000F7731A408280704721B1828842F00102D7
:104B5000828004E082884FF6FE731A40828070479C
:104B60000A460021018B4FF6F77319401143018368
:104B700070470A460021018B4FF2FF7319404FF630
:104B8000FF7303EA02231943018370470A46002199
:104B9000818B4FF6F77319401143818370470A46A2
:104BA0000021818B4FF2FF7319404FF6FF7303EA28
:104BB00002231943818370470A460021018B4FF677
:104BC000FB7319401143018370470A460021018B92
:104BD0004FF6FF3319404FF6FF7303EA02231943E0
:104BE000018370470A460021818B4FF6FB73194001
:104BF0001143818370470A460021818B4FF6FF33B2
:104C000019404FF6FF7303EA02231943818370476B
:104C10000A460021018B4FF67F731940114301832F
:104C200070470A460021018BC1F30E014FF6FF7356
:104C300003EA02231943018370470A460021818B4E
:104C40004FF67F7319401143818370470A46002154
:104C5000818BC1F30E014FF6FF7303EA0223194360
:104C6000818370470A460021018C4FF6FD7319407D
:104C70001143018470470A460021018C4FF6F773F7
:104C800019401143018470470A460021018C4FF6F8
:104C9000DF7319404FF6FF7303EA021319430184CF
:104CA00070470A460021018C4FF67F7319404FF67A
:104CB000FF7303EA02131943018470470A46002177
:104CC000018C4FF6FF5319404FF6FF7303EA02239E
:104CD0001943018470470A460021018C4FF2FF738B
:104CE00019404FF6FF7303EA02231943018470470A
:104CF0000A460021018C4DF6FF7319404FF6FF73F1
:104D000003EA023319430184704730B500230124BC
:104D10008C40A3B2048C9C430484048C02FA01F5F9
:104D2000ADB22C43048430BD30B5002304248C4044
:104D3000A3B2048C9C430484048C02FA01F5ADB246
:104D40002C43048430BD70B503460020002418466F
:104D5000183001258D40ACB21D8CA5431D8409B1CE
:104D6000082909D100EB6100056825F07005056090
:104D70000568154305600EE00D1FC5F34E05284478
:104D8000056825F4E045056005684FF6FF7606EAFC
:104D900002263543056070BD21B1028842F002024F
:104DA000028004E002884FF6FD731A4002807047CB
:104DB00021B1028842F00402028004E002884FF62A
:104DC000FB731A400280704721B1828842F0800252
:104DD000828004E082884FF67F731A408280704799
:104DE00002884FF6F7731A40028002880A43028055
:104DF000704782884FF68F731A40828082880A43F8
:104E00008280704702894FF6F8731A400281028946
:104E10000A430281704702894FF67F731A4002816C
:104E200002890A43028170478184704781857047F7
:104E3000818670470187704781877047A0F84010CE
:104E4000704702884FF6FF431A40028002880A43E7
:104E5000028070470146888E70470146088F704770
:104E60000146888F70470146B1F8400070470146FF
:104E7000888C70470146088D704702460020138ACF
:104E80000B400BB1012000E000207047CA430282B2
:104E9000704730B50246002000230024158A05EA39
:104EA0000103958905EA010413B10CB1012000E06A
:104EB000002030BDCA4302827047000010B504468E
:104EC000FB48844209D101218803FFF79FF80021A4
:104ED0004FF48040FFF79AF832E0F648844209D157
:104EE00001214804FFF79FF800214FF40030FFF73D
:104EF0009AF825E0F048844209D101218804FFF79F
:104F000092F800214FF48020FFF78DF818E0EB486D
:104F1000844209D10121C804FFF785F800214FF42C
:104F20000020FFF780F80BE0E548844208D101211A
:104F30000805FFF778F800214FF48010FFF773F8A9
:104F400010BD2DE9F04786B005460E460024A24666
:104F500000BFA1460027B08900B100BF2F462C8AB0
:104F60004CF6FF700440F08804432C82AC894EF666
:104F7000F3100440B0883189084371890843044321
:104F8000AC81AC8A4FF6FF400440B0890443AC8248
:104F900001A8FEF7B4FFC648874202D1DDF810A091
:104FA00001E0DDF80CA0A88900F4004040B10AEB54
:104FB000CA0000EB0A1031684900B0FBF1F807E0C5
:104FC0000AEBCA0000EB0A1031688900B0FBF1F867
:104FD0006420B8FBF0F004012009642101FB108972
:104FE000A88900F4004040B1322000EBC900B0FBBA
:104FF000F1F000F00700044308E0322000EB091054
:105000006421B0FBF1F000F00F0004432C8106B0E6
:10501000BDE8F0874FF41651016000218180C18006
:1050200001810C21418100218181704710B5024628
:105030000020108A4FF2FF0318400B884C8823434E
:105040008C882343CC8823431843108210BD002151
:10505000018041808180C180704721B1828942F402
:105060000052828104E082894DF6FF731A408281EA
:105070007047F0B50346002400260025002040F6C6
:105080006A17B94200D100BF1846C1F3421401F0BB
:105090001F06012707FA06F5012C01D10C3004E0A8
:1050A000022C01D1103000E014301AB107682F43F0
:1050B000076002E00768AF430760F0BD1AB1838A5A
:1050C0000B43838202E0838A8B4383827047028A88
:1050D0004FF6F0731A400282028A0A430282704736
:1050E00082894FF2FF731A40828182890A4382814A
:1050F000704721B1828942F00202828104E08289F4
:105100004FF6FD731A4082817047028A4FF6DF73B3
:105110001A400282028A0A430282704721B1028A3F
:1051200042F48042028204E0028A4BF6FF731A4086
:1051300002827047C1F30802828070470146888866
:10514000C0F308007047818941F0010181817047F7
:10515000028BD2B20283028B42EA012202837047A1
:10516000028B02F47F420283028B0A430283704760
:1051700021B1828A42F02002828204E0828A4FF6C4
:10518000DF731A408282704721B1828A42F0100296
:10519000828204E0828A4FF6EF731A40828270475F
:1051A00021B1828A42F00802828204E0828A4FF6AC
:1051B000F7731A408282704721B1828942F400421B
:1051C000828103E08289C2F30E028281704721B19D
:1051D000828A42F40062828204E0828A4FF2FF7384
:1051E0001A4082827047828A4FF6FB731A4082828D
:1051F000828A0A438282704721B1828A42F0020287
:10520000828204E0828A4FF6FD731A4082827047E0
:1052100002460020B1F5007F00D100BF13880B408B
:105220000BB1012000E00020704701F40072B2F5DC
:10523000007F00D100BFCA430280704770B50246AC
:10524000002400230025002040F66A16B14200D158
:1052500000BFC1F3421501F01F03012606FA03F354
:10526000012D02D19689334006E0022D02D1168A23
:10527000334001E0968A33400C12012606FA04F40A
:105280001688344013B10CB1012000E0002070BD3D
:1052900010B50022002340F66A14A14200D100BFDD
:1052A0000A1201249440A3B2DC43048010BD000024
:1052B000003801400044004000480040004C0040DD
:1052C0000050004001460020FE4A106800F03800FF
:1052D000084310607047FB49096821F00801F94A4A
:1052E000116011460968014311607047F54909686A
:1052F00021F01001F34A1160114609680143116061
:105300007047F148EF494860F04848607047EE4800
:10531000EC494860ED4848607047EA48006940F051
:105320008000E84908617047E648006940F0800065
:10533000E449086170470420E249C96801F00101AD
:1053400009B101200EE0DF49C96801F0040109B18B
:10535000022007E0DB49C96801F0100109B1032010
:1053600000E00420704700B502460423FFF7E3FF86
:10537000034603E0FFF7DFFF0346521E012B01D176
:10538000002AF7D102B90523184600BD30B50446FE
:1053900004254FF43020FFF7E6FF0546042D17D112
:1053A000C848006940F00200C649086108464461E7
:1053B000006940F0400008614FF43020FFF7D3FF50
:1053C0000546C048006941F6FD710840BD490861C5
:1053D000284630BD10B504244FF43020FFF7C3FF3A
:1053E0000446042C16D1B748006940F00400B549C2
:1053F00008610846006940F0400008614FF4302021
:10540000FFF7B1FF0446AF48006941F6FB71084061
:10541000AC490861204610BD00B502460423FFF7E1
:105420008AFF034603E0FFF786FF0346521E012B67
:1054300001D1002AF7D102B90523184600BD10B5E5
:1054400004244FF43020FFF7E7FF0446042C16D164
:105450009C48006940F004009A49086108460069C8
:1054600040F0400008614FF43020FFF7D5FF0446BC
:105470009448006941F6FB71084092490861204652
:1054800010BD00208F49C96901F0020109B1012056
:1054900000E00020704730B5A5250424FFF7F1FF98
:1054A00000B100254FF43020FFF75DFF0446042CC7
:1054B0003AD18548834988608448886008460069F5
:1054C00040F0200008610846006940F04000086193
:1054D0004FF43020FFF747FF0446042C1BD17948D6
:1054E000006941F6DF7108407649086108460069A5
:1054F00040F01000086176480580E002FFF733FFB6
:105500000446052C10D06F48006941F6EF71084041
:105510006C49086108E0052C06D06A48006941F62C
:10552000EF71084067490861204630BD78B50646EE
:105530000C46042500200090E802FFF714FF054602
:10554000042D24D15F48006940F001005D490861E5
:105550003480E802FFF707FF0546042D10D1B01C88
:105560000090200C00990880E802FFF7FCFE054639
:105570005448006941F6FE7108405249086106E04E
:105580005048006941F6FE7108404E4908612846BE
:1055900078BD70B504460D460426F002FFF7E3FE21
:1055A0000646042E11D14748006940F001004549E4
:1055B00008612580F002FFF7D6FE064641480069E3
:1055C00041F6FE7108403F490861304670BD70B534
:1055D00005460E460424E002FFF7C5FE0446042CEF
:1055E00017D13948374988603848886008460069CB
:1055F00040F0100008612E80E002FFF7B4FE044680
:10560000052C06D02F48006941F6EF7108402D495E
:105610000861204670BD2DE9F04304464FF6FF7641
:105620003746B046B1460425E443E6B2C4F3072743
:10563000C4F307484FEA1469E802FFF794FE0546F1
:10564000042D49D120481F498860204888600846B9
:10565000006940F010000861FF2E06D01C48083099
:105660000680E802FFF77FFE0546042D08D1FF2FD4
:1056700006D017480A300780E802FFF774FE054697
:10568000042D0AD1B8F1FF0F07D011480C30A0F853
:105690000080E802FFF767FE0546042D0AD1B9F144
:1056A000FF0F07D00A480E30A0F80090E802FFF77D
:1056B0005AFE0546052D0FD00248006941F6EF71EC
:1056C000084007E00020024023016745AB89EFCD89
:1056D00000F8FF1F664908612846BDE8F08330B531
:1056E000054604244FF43020FFF73DFE0446042C09
:1056F00041D160485E4988605F488860084600691B
:1057000040F0200008610846006940F04000086150
:105710004FF43020FFF727FE0446042C22D15448D2
:10572000006941F6DF710840514908610846006987
:1057300040F0100008611DB100205049088002E0CF
:10574000A5204E4908804FF43020FFF70CFE044698
:10575000052C10D04648006941F6EF7108404449D5
:10576000086108E0052C06D04148006941F6DF7168
:1057700008403F490861204630BDF0B505460E4659
:10578000174604243B483A4988603B488860E00259
:10579000FFF7E9FD0446042C19D13548006940F0B3
:1057A00010003349086147F0F8003043284333497B
:1057B000891C0880E002FFF7D6FD0446052C06D0C0
:1057C0002B48006941F6EF710840294908612046DD
:1057D000F0BD2748C069800870472548006A7047B7
:1057E00000202349096801F0200109B1012000E0EF
:1057F0000020704729B11E4A126902431C4B1A61EE
:1058000004E01B4A12698243194B1A617047014632
:105810000020012908D1164AD26902F001020AB11A
:10582000012008E0002006E0114AD2680A400AB1CF
:10583000012000E0002070470D49C8607047042037
:105840000B49C96801F0010109B101200EE00849C6
:10585000C96801F0040109B1022007E00449C968E0
:1058600001F0100109B1032000E00420704700009E
:105870000020024023016745AB89EFCD00F8FF1FF0
:1058800070477047704710B500F008F8006810BD09
:1058900010B5044600F002F8046010BD00487047DF
:1058A000BC06002000487047BC0600207546FFF784
:1058B000F9FFAE4605006946534620F007008546CD
:1058C00018B020B5FAF77EFDBDE820404FF0000685
:1058D0004FF000074FF000084FF0000B21F00701D8
:1058E000AC46ACE8C009ACE8C009ACE8C009ACE81B
:1058F000C0098D4670470446AFF300802046FAF792
:105900005CFC000001491820ABBEFEE72600020047
:105910007047490050EAC12018BF04204A0D18BF43
:1059200040F0010040F2FF72B2EB515F08BF40F05F
:105930000200012808BF052070472DE9F0414F1EE5
:1059400000EBC7010446D1E9000115461E4637F0B9
:1059500006020DD02A46334601F03AFB7F1E04EBC7
:10596000C703D3E9002301F09DF837F00602F1D117
:10597000022F25D0042F13D0062F18BFBDE8F081C9
:105980002A46334601F024FBD4E90A2301F08AF8C1
:105990002A46334601F01CFBD4E9082301F082F8C3
:1059A0002A46334601F014FBD4E9062301F07AF8C5
:1059B0002A46334601F00CFBD4E9042301F072F8C7
:1059C0002A46334601F004FBD4E9022301F06AF8C9
:1059D0002A46334601F0FCFAD4E90023BDE8F04141
:1059E00001F060B8024A0020110702F056B9000029
:1059F00001FDFFFF2DE9F04D904F21F0004A86B0E8
:105A000005460C46BA4530DBAAEB070028430CD00C
:105A10008B48824501DC1CD1DDB106B02846BDE8CB
:105A2000F04D4FF0010202F038B9864A864B284605
:105A300001F0CEFA07460E46844A854B2846214699
:105A400001F0C6FA06B03A463346BDE8F04D01F023
:105A500029B80120FFF71CFF06B00022BDE8F04D79
:105A600013461046114601F0D9B87A48824542DA09
:105A7000BAF1795F0BDA2846FFF74BFF042808BF1D
:105A8000FFF7B0FF284606B02146BDE8F08D2A4654
:105A90000B46104601F09CFA834602466E480E46BD
:105AA0000B4606217844FFF748FF5A46334601F07B
:105AB0008FFA804669488A465A463346042178441C
:105AC000FFF73BFF5A46334601F082FA00223B467D
:105AD00000F0E8FF02460B464046514601F09EF8B2
